:100000000C9471000C94BD050C9496050C94990009
:100010000C9499000C9499000C9499000C949900FC
:100020000C9499000C9499000C9499000C949900EC
:100030000C9499000C9499000C9499000C949900DC
:100040000C944C050C9499000C941A050C94F4042F
:100050000C9499000C9499000C9499000C949900BC
:100060000C9499000C94990005A84CCDB2D44EB9CB
:100070003836A9020C50B9918688083CA6AAAA2A4B
:10008000BE000000803F00000000240027002A007E
:1000900000000000250028002B00000000080002DE
:1000A0000100000304070000000000000000000041
:1000B00000002300260029000404040404040404AE
:1000C0000202020202020303030303030102040803
:1000D00010204080010204081020010204081020B2
:1000E000290611241FBECFEFD8E0DEBFCDBF11E03F
:1000F000A0E0B1E0E4E6F6E102C005900D92A4357F
:10010000B107D9F722E0A4E5B1E001C01D92AA32FF
:10011000B207E1F710E0C1E7D0E004C02197FE018B
:100120000E942A0BC037D107C9F70E9473060C94AE
:10013000300B0C9400008091710190917201019636
:10014000813291052CF4909372018093710108958E
:1001500081E090E0F8CFAF92BF92CF92DF92EF9222
:10016000FF920F931F93CF93DF936C017B018B0161
:10017000040F151FEB015E01AE18BF08C017D107B1
:1001800059F06991D601ED91FC910190F081E02D3B
:10019000C6010995892B79F7C501DF91CF911F9190
:1001A0000F91FF90EF90DF90CF90BF90AF900895A8
:1001B000FC01538D448D252F30E0842F90E0821B6D
:1001C000930B541710F0CF96089501970895FC01F2
:1001D000918D828D981761F0A28DAE0FBF2FB11D4A
:1001E0005D968C91928D9F5F9F73928F90E00895A2
:1001F0008FEF9FEF0895FC01918D828D981731F05C
:10020000828DE80FF11D858D90E008958FEF9FEFAF
:100210000895FC01918D228D892F90E0805C9F4F85
:10022000821B91098F739927089585E791E00E94B9
:10023000090121E0892B09F420E0822F089580E054
:1002400090E0892B29F00E94150181110C94000087
:100250000895FC01A48DA80FB92FB11DA35ABF4F5B
:100260002C91848D90E001968F739927848FA689B5
:10027000B7892C93A089B1898C91837080648C9309
:10028000938D848D981306C00288F389E02D8081B8
:100290008F7D80830895EF92FF920F931F93CF93EA
:1002A000DF93EC0181E0888F9B8D8C8D98131AC0B1
:1002B000E889F989808185FF15C09FB7F894EE8998
:1002C000FF896083E889F9898081837080648083F5
:1002D0009FBF81E090E0DF91CF911F910F91FF9040
:1002E000EF900895F62E0B8D10E00F5F1F4F0F73E8
:1002F0001127E02E8C8D8E110CC00FB607FCFACFA3
:10030000E889F989808185FFF5CFCE010E94290116
:10031000F1CFEB8DEC0FFD2FF11DE35AFF4FF08273
:100320009FB7F8940B8FEA89FB8980818062CFCFD9
:10033000CF93DF93EC01888D8823B9F0AA89BB891C
:10034000E889F9898C9185FD03C0808186FD0DC007
:100350000FB607FCF7CF8C9185FFF2CF808185FF28
:10036000EDCFCE010E942901E9CFDF91CF91089511
:10037000833081F028F4813099F08230A9F008951B
:100380008730A9F08830C9F08430B1F480918000C2
:100390008F7D03C0809180008F77809380000895C7
:1003A00084B58F7784BD089584B58F7DFBCF809110
:1003B000B0008F778093B00008958091B0008F7D5A
:1003C000F9CFCF93DF93282F30E0F901E656FF4FA6
:1003D0008491F901E453FF4FD491F901E854FF4FA0
:1003E000C491CC23A1F081110E94B801EC2FF0E060
:1003F000EE0FFF1FE255FF4FA591B491EC91ED2355
:1004000081E090E009F480E0DF91CF91089580E0F1
:1004100090E0FACF1F93CF93DF93282F30E0F901BC
:10042000E656FF4F8491F901E453FF4FD491F9014F
:10043000E854FF4FC491CC23A9F0162F81110E94DC
:10044000B801EC2FF0E0EE0FFF1FE057FF4FA59132
:10045000B4918FB7F894EC91111108C0D095DE23B8
:10046000DC938FBFDF91CF911F910895DE2BF8CFE2
:10047000CF93DF9390E0FC01E453FF4F2491885425
:100480009F4FFC0184918823D1F090E0880F991F41
:10049000FC01EA57FF4FA591B491FC01E057FF4FD3
:1004A000C591D49161110EC09FB7F8948C91E22F41
:1004B000E0958E238C932881E223E8839FBFDF9110
:1004C000CF9108958FB7F894EC91E22BEC938FBF06
:1004D000F6CF0895089590E080E00895FC01019022
:1004E0000020E9F73197AF01481B590BBC0182E1AD
:1004F00092E00C94AB008F929F92AF92BF920F93B9
:100500001F93CF93DF93CDB7DEB7A1970FB6F894C3
:10051000DEBF0FBECDBF19A2423008F44AE08E0103
:100520000F5D1F4F842E912CB12CA12CA50194019D
:100530000E94080BE62FB901CA01EA30F4F4E05D2D
:10054000D801EE938D01232B242B252B79F790E0F6
:1005500080E0109719F0CD010E946E02A1960FB6AF
:10056000F894DEBF0FBECDBFDF91CF911F910F91E9
:10057000BF90AF909F908F900895E95CE1CFCF93AB
:10058000DF93EC0160E08E810E940A0261E08E81BF
:100590000E940A0260E08E810E940A028BE891E0CC
:1005A0000197F1F7DF91CF910895CF92DF92EF920B
:1005B000FF920F931F93CF93DF936C017C0187E031
:1005C000E80EF11CD0E0C0E0062F10E0B8010C2EC0
:1005D00002C0759567950A94E2F76170F701819101
:1005E0007F010E940A022196C430D10579F7C60125
:1005F000DF91CF911F910F91FF90EF90DF90CF90FF
:100600000C94BF02CF92DF92EF92FF920F931F9351
:10061000CF93DF93EC01F62E642F8C810E940A02A7
:100620008D818F3F19F060E00E940A020F2D10E0CB
:100630008F8584FF25C06E0187E0C80ED11CF12C88
:10064000E12CB8010E2C02C0759567950A94E2F76B
:100650006170F60181916F010E940A02FFEFEF1AAB
:10066000FF0A88E0E816F10461F7CE01DF91CF912F
:100670001F910F91FF90EF90DF90CF900C94BF02ED
:10068000B80184E0759567958A95E1F7CE010E94DF
:10069000D5026F2DCE01DF91CF911F910F91FF9069
:1006A000EF90DF90CF900C94D50240E0682F82E16C
:1006B00092E00C940203CF93DF93813029F0909164
:1006C00021029860909321028093250210922602C5
:1006D00080E48093270280E18093280280E5809364
:1006E000290261E0809116020E943802809117026F
:1006F0008F3F19F061E00E94380261E0809118029A
:100700000E943802C2E1D2E09E0122513240809123
:10071000210284FD0BC084E090E021962817390760
:1007200044F461E08E810E943802EECF88E090E0D0
:10073000F4CF8BE39DE00197F1F760E08091160222
:100740000E940A0260E0809118020E940A028091D1
:1007500017028F3F19F060E00E940A028091210287
:1007600084FD39C063E082E192E00E94D502CBE4CF
:10077000D6E4CE010197F1F763E082E192E00E94B6
:10078000D5022197F1F763E082E192E00E94D50261
:1007900083E592E00197F1F762E082E192E00E9446
:1007A000D5028091210280620E94550384E08093EB
:1007B00022028CE00E94550381E00E9455038BE3E6
:1007C0009FE10197F1F782E08093230286E0DF91B9
:1007D000CF910C94550380620E9455038BE496E4FC
:1007E0000197F1F78091210280620E94550383E511
:1007F00092E00197F1F78091210280620E945503F7
:10080000D0CF90912502691710F06FEF690FE62F96
:10081000F0E0EE5EFD4F9489890F80680C945503DB
:1008200041E00E94020381E090E008954F925F92C0
:100830006F927F928F929F92AF92BF92CF92DF92F0
:10084000EF92FF920F931F93CF936B017C01742E55
:10085000AC019B010E94BA0A882399F082E291E0E0
:10086000CF911F910F91FF90EF90DF90CF90BF90AD
:10087000AF909F908F907F906F905F904F900C946F
:100880006E0246015701E894B7F82FEF3FEF4FE7AC
:100890005FE7C501B4010E94BA0A81110DC02FEFB4
:1008A0003FEF4FE75FE7C501B4010E94AC0818169F
:1008B0001CF486E291E0D4CF2FEF3FEF4FE75FE4E7
:1008C000C701B6010E94480A18161CF48AE291E09A
:1008D000C7CF2FEF3FEF4FE75FECC701B6010E9494
:1008E000AC0887FDF3CF20E030E0A901C701B601D5
:1008F0000E94AC0810E000E087FF0CC041E06DE210
:1009000082E192E00E940203F7FAF094F7F8F09483
:1009100001E010E0C0E060E070E080E09FE37C1662
:1009200041F020E030E040E251E40E94B608CF5FA1
:10093000F6CFA70196010E9440084B015C010E947E
:1009400028092B013C014AE00E947B02080F191F75
:10095000CC23C9F1C301B2010E9457099B01AC012C
:10096000C501B4010E943F084B015C0141E06EE209
:1009700082E192E00E9402030F5F1F4FC15018F105
:1009800020E030E040E251E4C501B4010E944D0A8C
:100990002B013C010E9428094B01B12CA12C4AE0FB
:1009A000C501B4010E947B02080F191FC501B401E3
:1009B0000E9457099B01AC01C301B2010E943F088C
:1009C0004B015C01DBCFC801CF911F910F91FF90CC
:1009D000EF90DF90CF90BF90AF909F908F907F90DF
:1009E0006F905F904F9008951F920F920FB60F92E5
:1009F00011242F933F934F935F936F937F938F9324
:100A00009F93AF93BF93EF93FF9385E791E00E948D
:100A10002901FF91EF91BF91AF919F918F917F91AC
:100A20006F915F914F913F912F910F900FBE0F905B
:100A30001F9018951F920F920FB60F9211242F93AB
:100A40008F939F93EF93FF93E0918501F09186013F
:100A50008081E0918B01F0918C0182FD1BC090811F
:100A600080918E018F5F8F7320918F01821741F0EB
:100A7000E0918E01F0E0EB58FE4F958F80938E0150
:100A8000FF91EF919F918F912F910F900FBE0F903B
:100A90001F9018958081F4CF1F920F920FB60F927E
:100AA00011242F933F938F939F93AF93BF93809184
:100AB000590190915A01A0915B01B0915C01309174
:100AC000580123E0230F2D3758F50196A11DB11DC4
:100AD000209358018093590190935A01A0935B0190
:100AE000B0935C018091540190915501A091560101
:100AF000B09157010196A11DB11D809354019093AF
:100B00005501A0935601B0935701BF91AF919F91AA
:100B10008F913F912F910F900FBE0F901F901895BE
:100B200026E8230F0296A11DB11DD2CF1F920F926E
:100B30000FB60F9211242F933F934F935F936F93B0
:100B40007F938F939F93AF93BF93EF93FF93E09126
:100B50000201F09103010995FF91EF91BF91AF91CF
:100B60009F918F917F916F915F914F913F912F91C5
:100B70000F900FBE0F901F9018951F920F920FB6F7
:100B80000F9211242F933F934F935F936F937F9313
:100B90008F939F93AF93BF93EF93FF93E0910001E7
:100BA000F09101010995FF91EF91BF91AF919F9154
:100BB0008F917F916F915F914F913F912F910F9006
:100BC0000FBE0F901F901895CF92DF92EF92FF9279
:100BD0000F931F93E82FF92F05C001501109210928
:100BE000310961F1908196239417B9F305C0015042
:100BF00011092109310911F1908196239413F7CF3E
:100C0000C12CD12CE12CF12C0AC08FEFC81AD80AC4
:100C1000E80AF80A0C151D052E053F0579F08081BC
:100C20008623841791F36C2D7D2D8E2D9F2D1F9182
:100C30000F91FF90EF90DF90CF90089560E070E00B
:100C400080E090E01F910F91FF90EF90DF90CF90A8
:100C50000895E5E7F1E01382128288EE93E0A0E0C8
:100C6000B0E084839583A683B78388E091E0918385
:100C7000808385EC90E09587848784EC90E097876B
:100C8000868780EC90E0918B808B81EC90E0938B59
:100C9000828B82EC90E0958B848B86EC90E0978B36
:100CA000868B118E128E138E148EE2E1F2E0138287
:100CB00012828AE191E0918380838CE084838FEFBC
:100CC00085838BE0868385E0878384E0808783E06B
:100CD000818786E082871386148615861686178696
:100CE00081E00C945B03789484B5826084BD84B504
:100CF000816084BD85B5826085BD85B5816085BD17
:100D000080916E00816080936E00109281008091CE
:100D10008100826080938100809181008160809356
:100D20008100809180008160809380008091B1007B
:100D300084608093B1008091B00081608093B000A6
:100D400080917A00846080937A0080917A0082603A
:100D500080937A0080917A00816080937A008091FC
:100D60007A00806880937A001092C100E09185013A
:100D7000F091860182E08083E0918101F09182010F
:100D80001082E0918301F09184018FEC80831092B6
:100D90008D01E0918901F0918A0186E08083E091E4
:100DA0008701F0918801808180618083E0918701D3
:100DB000F0918801808188608083E0918701F091C3
:100DC0008801808180688083E0918701F0918801AB
:100DD00080818F7D808384E00E945B0360E08EE0F1
:100DE0000E9438028BE990E090930101809300010A
:100DF00080916900836080936900E89A9AEDE92EFA
:100E000090E0F92E26ECC22E20E0D22EC0E0D0E0F9
:100E1000812C912C30E8A32E3FE3B32E8AE00E9470
:100E2000E101909374018093730189E00E94E101D4
:100E300060E080E00E9401048EE291E00E946E0278
:100E400061E080E00E9401048AE391E00E946E026A
:100E5000209171013091720180916F019091700128
:100E60002817390709F456C08091730190917401D5
:100E7000019709F52FE832EC45EF5CE360916B01D7
:100E800070916C0180916D0190916E010E944008FB
:100E90002B013C0140926B0150926C0160926D01FC
:100EA00070926E0160E08CE00E94010442E0C30198
:100EB000B2010E9416048091730190917401892BF4
:100EC00009F52FE832EC45EF5CE360916701709122
:100ED00068018091690190916A010E9440082B018C
:100EE0003C014092670150926801609269017092E2
:100EF0006A0161E08CE00E94010442E0C301B2019A
:100F00000E9416048091710190917201909370017A
:100F100080936F0180912202982F94609093220217
:100F20008C600E94550310926601109265018091B9
:100F300065019091660105970CF063C0F70164911B
:100F4000F6018491E82FF0E0EE0FFF1FE255FF4F0E
:100F50008591949100E412E42FE030E0462F0E9446
:100F6000E405611571058105910529F06F5F7F4FDB
:100F70008F4F9F4F9F700E9457092DEB37E346E834
:100F800055E30E944D0A20E030E044EB53E40E9418
:100F90004D0A20E030E048E452E40E944D0A2B0163
:100FA0003C012091610130916201409163015091B7
:100FB00064010E94480A1816D4F4409261015092CC
:100FC0006201609263017092640121EE3EE245E6A7
:100FD00052E4C301B2010E94B6080E94B1086093B6
:100FE0005D0170935E0180935F0190936001809139
:100FF0006501909166010196909366018093650169
:1010000096CF20E030E044EB53E4609161017091B1
:10101000620180916301909164010E94480A181650
:1010200084F4109261011092620110926301109297
:10103000640180925D0190925E01A0925F01B09286
:10104000600162E080E00E94010486E491E00E9479
:101050006E0260915D0170915E0180915F019091DF
:10106000600142E00E941604209709F4D7CE0E9446
:101070001501882309F4D2CE0E940000CFCE50582B
:10108000BB27AA270E9457080C94FA090E94C1099D
:1010900038F00E94C80920F039F49F3F19F426F473
:1010A0000C94BE090EF4E095E7FB0C94B809E92F07
:1010B0000E941F0A58F3BA1762077307840795073F
:1010C00020F079F4A6F50C94410A0EF4E0950B2E6D
:1010D000BA2FA02D0B01B90190010C01CA01A0018A
:1010E0001124FF27591B99F0593F50F4503E68F1E5
:1010F0001A16F040A22F232F342F4427585FF3CF26
:10110000469537952795A795F0405395C9F77EF4F6
:101110001F16BA0B620B730B840BBAF09150A1F03F
:10112000FF0FBB1F661F771F881FC2F70EC0BA0FC5
:10113000621F731F841F48F4879577956795B7954D
:10114000F7959E3F08F0B0CF9395880F08F0992748
:10115000EE0F9795879508950E94940908F481E011
:1011600008950E94D109E3950C940B0A0E94CA08C5
:101170000C94FA090E94C80958F00E94C10940F075
:1011800029F45F3F29F00C94B80951110C94420ADC
:101190000C94BE090E941F0A68F39923B1F35523EA
:1011A00091F3951B550BBB27AA276217730784077A
:1011B00038F09F5F5F4F220F331F441FAA1FA9F310
:1011C00035D00E2E3AF0E0E832D091505040E695FE
:1011D000001CCAF72BD0FE2F29D0660F771F881F5F
:1011E000BB1F261737074807AB07B0E809F0BB0B52
:1011F000802DBF01FF2793585F4F3AF09E3F510566
:1012000078F00C94B8090C94420A5F3FE4F3983EDE
:10121000D4F3869577956795B795F7959F5FC9F74E
:10122000880F911D9695879597F90895E1E0660FCF
:10123000771F881FBB1F621773078407BA0720F048
:10124000621B730B840BBA0BEE1F88F7E0950895B1
:101250000E94270A88F09F5798F0B92F9927B75115
:10126000B0F0E1F0660F771F881F991F1AF0BA954A
:10127000C9F714C0B13091F00E94410AB1E008955D
:101280000C94410A672F782F8827B85F39F0B93F4F
:10129000CCF3869577956795B395D9F73EF49095FD
:1012A0008095709561957F4F8F4F9F4F0895E8947B
:1012B00009C097FB3EF490958095709561957F4F9E
:1012C0008F4F9F4F9923A9F0F92F96E9BB2793954C
:1012D000F695879577956795B795F111F8CFFAF45C
:1012E000BB0F11F460FF1BC06F5F7F4F8F4F9F4F8D
:1012F00016C0882311F096E911C0772321F09EE8EB
:10130000872F762F05C0662371F096E8862F70E050
:1013100060E02AF09A95660F771F881FDAF7880F2A
:101320009695879597F90895990F0008550FAA0B80
:10133000E0E8FEEF16161706E807F907C0F01216E8
:101340001306E407F50798F0621B730B840B950BEB
:1013500039F40A2661F0232B242B252B21F4089540
:101360000A2609F4A140A6958FEF811D811D0895DD
:1013700097F99F6780E870E060E008959FEF80EC48
:10138000089500240A9416161706180609060895EB
:1013900000240A94121613061406050608950C94E8
:1013A000BE090E94270AD8F3E894E0E0BB279F57C4
:1013B000F0F02AED3FE049EC06C0EE0FBB0F661FD0
:1013C000771F881F28F0B23A62077307840728F056
:1013D000B25A620B730B840BE3959A9572F78038BF
:1013E00030F49A95BB0F661F771F881FD2F790487D
:1013F0000C94C10A092E0394000C11F4882352F0B6
:10140000BB0F40F4BF2B11F460FF04C06F5F7F4F30
:101410008F4F9F4F0895EF93E0FF07C0A2EA2AED98
:101420003FE049EC5FEB0E9457080E94FA090F90D9
:10143000039401FC9058E8E6F0E00C94CD0A57FDC7
:101440009058440F551F59F05F3F71F04795880F32
:1014500097FB991F61F09F3F79F0879508951216C9
:1014600013061406551FF2CF4695F1DF08C0161675
:1014700017061806991FF1CF869571056105089426
:101480000895E894BB2766277727CB0197F908953D
:101490000E94940908F48FEF08950E94600A0C944A
:1014A000FA090E94C10938F00E94C80920F095236A
:1014B00011F00C94B8090C94BE0911240C94420A42
:1014C0000E941F0A70F3959FC1F3950F50E0551FBE
:1014D000629FF001729FBB27F00DB11D639FAA2789
:1014E000F00DB11DAA1F649F6627B00DA11D661FD8
:1014F000829F2227B00DA11D621F739FB00DA11DF9
:10150000621F839FA00D611D221F749F3327A00DB2
:10151000611D231F849F600D211D822F762F6A2F4E
:1015200011249F5750409AF0F1F088234AF0EE0FB3
:10153000FF1FBB1F661F771F881F91505040A9F7E0
:101540009E3F510580F00C94B8090C94420A5F3F0D
:10155000E4F3983ED4F3869577956795B795F7951C
:10156000E7959F5FC1F7FE2B880F911D9695879594
:1015700097F908950E949409880B990B08959F3F4D
:1015800031F0915020F4879577956795B795880F3E
:10159000911D9695879597F908959F938F937F93C3
:1015A0006F93FF93EF939B01AC010E944D0AEF9163
:1015B000FF910E94E10A2F913F914F915F910C940E
:1015C0004D0ADF93CF931F930F93FF92EF92DF9219
:1015D0007B018C01689406C0DA2EEF010E94600A3C
:1015E000FE01E894A5912591359145915591A6F379
:1015F000EF010E945708FE019701A801DA9469F7EC
:10160000DF90EF90FF900F911F91CF91DF910895A0
:10161000A1E21A2EAA1BBB1BFD010DC0AA1FBB1FF6
:10162000EE1FFF1FA217B307E407F50720F0A21B68
:10163000B30BE40BF50B661F771F881F991F1A94D5
:1016400069F760957095809590959B01AC01BD01FF
:10165000CF010895EE0FFF1F0590F491E02D09943E
:04166000F894FFCF2C
:1016640069026902000000004B01AB00D800980138
:101674000901E700FB00000000001004AB006B024E
:101684006A026E616E00696E66006F766600457868
:10169400706F7274206B57483A00496D706F7274A2
:1016A400206B57483A00506F776572466163746FD8
:0416B400723A000086
:00000001FF
