:100000000C942E010C945F010C945F010C945F0121
:100010000C945F010C945F010C945F010C945F01E0
:100020000C945F010C945F010C945F010C945F01D0
:100030000C945F010C945F010C945F010C945F01C0
:100040000C945F010C945F010C945F010C945F01B0
:100050000C945F010C945F010C945F010C945406A6
:100060000C945F010C941E060C94F4050C945F0133
:100070000C945F010C945F010C945F010C945F0180
:100080000C945F010C945F010C945F010C945F0170
:100090000C945F010C945F010C945F010C945F0160
:1000A0000C945F010C945F010C945F010C945F0150
:1000B0000C945F010C945F010C945F010C945F0140
:1000C0000C945F010C945F010C945F010C945F0130
:1000D0000C945F010C945F010C945F010C945F0120
:1000E0000C945F010C9461010C94BF010C949E066A
:1000F0000C949D010C94FB020C94C5020C946A03B1
:100100000C94F7010C9411030C94F1020C94DC0292
:100110000C94E0020C94E8020C94B1010C94EB02F4
:100120000C940D030C941B030C9410050C948E017D
:100130000C94FF020C94F5020C94E4020C94090355
:100140000C9403030C9417030C94CA020C944402FD
:100150000C94690300002100240027002A002D00D0
:100160003000330001010000040107010A01000012
:100170002200250028002B002E003100340002014F
:100180000000050108010B01050505050705080824
:100190000808020202020A0A080804040404010111
:1001A0000101010101010303030303030303040726
:1001B00007070C0C0C0C0C0C0C0C020202020606BD
:1001C0000606060606060B0B0B0B0B0B0B0B0102B0
:1001D0001020200808102040102040800201020159
:1001E0000804020101020408102040808040201011
:1001F000080402018004020180402010080402016A
:1002000008040201010204081020408001020408D1
:100210001020408000000A0B02090C0D0E08070395
:1002200004010000000000000000000000000000C9
:1002300000000000000000000000000000000000BE
:10024000121110000000000000000000000000007B
:10025000000000000000000000009E0611241FBEE8
:10026000CFEFD1E2DEBFCDBF00E00CBF12E0A0E0D7
:10027000B2E0ECE3F7E100E00BBF02C007900D92A3
:10028000A83AB107D9F723E0A8EAB2E001C01D926D
:10029000AC37B207E1F711E0CEE2D1E000E006C0F2
:1002A00021970109802FFE010E94940BCD32D107C6
:1002B00080E00807A9F70E94E8060C949C0B0C94B8
:1002C0000000AF92BF92CF92DF92EF92FF920F9316
:1002D0001F93CF93DF936C017B018B01040F151FDC
:1002E000EB015E01AE18BF08C017D10759F0699144
:1002F000D601ED91FC910190F081E02DC601199598
:10030000892B79F7C501DF91CF911F910F91FF9054
:10031000EF90DF90CF90BF90AF900895FC01538D88
:10032000448D252F30E0842F90E0821B930B5417CF
:1003300010F0CF96089501970895FC01918D828D5C
:10034000981761F0A28DAE0FBF2FB11D5D968C91F5
:10035000928D9F5F9F73928F90E008958FEF9FEF34
:100360000895FC01918D828D981731F0828DE80FF0
:10037000F11D858D90E008958FEF9FEF0895FC01AA
:10038000918D228D892F90E0805C9F4F821B910977
:100390008F739927089587EC92E00E94BF0121E0B6
:1003A000892B09F420E0822F0895FC01A48DA80F69
:1003B000B92FB11DA35ABF4F2C91848D90E00196A7
:1003C0008F739927848FA689B7892C93A089B189C7
:1003D0008C91837080648C93938D848D981306C068
:1003E0000288F389E02D80818F7D80830895EF92CC
:1003F000FF920F931F93CF93DF93EC0181E0888FDF
:100400009B8D8C8D98131AC0E889F989808185FFAE
:1004100015C09FB7F894EE89FF896083E889F98950
:1004200080818370806480839FBF81E090E0DF9152
:10043000CF911F910F91FF90EF900895F62E0B8DA5
:1004400010E00F5F1F4F0F731127E02E8C8D8E1160
:100450000CC00FB607FCFACFE889F989808185FFC7
:10046000F5CFCE010E94D501F1CFEB8DEC0FFD2F22
:10047000F11DE35AFF4FF0829FB7F8940B8FEA8982
:10048000FB8980818062CFCFCF93DF93EC01888D91
:100490008823B9F0AA89BB89E889F9898C9185FDFF
:1004A00003C0808186FD0DC00FB607FCF7CF8C918D
:1004B00085FFF2CF808185FFEDCFCE010E94D5016F
:1004C000E9CFDF91CF91089580E090E0892B29F06A
:1004D0000E94CB0181110E94000080E090E0892BF6
:1004E00049F080E090E0892B29F00E940000811102
:1004F0000E94000080E090E0892B49F080E090E0CD
:10050000892B29F00E94000081110E94000080E0E8
:1005100090E0892B49F080E090E0892B29F00E943F
:10052000000081110C9400000895282F30E0F9019B
:10053000EC5EFD4F9491F901E253FE4F4491285730
:100540003E4FF9012491222309F435C0992311F17A
:1005500091509231F8F4E92FF0E08827ED54FD4FE7
:100560008F4F0C94940BE402E802C502DC02E00217
:10057000CA02EB02F102F502FB02FF0203030903C8
:100580000D03CA02110317031B03809180008F77AC
:1005900080938000E22FF0E0EE0FFF1FE259FE4F44
:1005A000A591B4918FB7F894EC91611148C0409532
:1005B0004E234C938FBF0895809180008F7DE8CFAC
:1005C00080918000877FE4CF84B58F7784BDE2CFB0
:1005D00084B58F7DFBCF8091B0008F778093B00082
:1005E000D9CF8091B0008F7DF9CF809190008F7727
:1005F00080939000CFCF809190008F7DF9CF809134
:100600009000877FF5CF8091A0008F778093A00026
:10061000C1CF8091A0008F7DF9CF8091A000877F0E
:10062000F5CF809120018F7780932001B3CF809107
:1006300020018F7DF9CF80912001877FF5CF4E2B50
:10064000B8CFCF93DF9390E0FC01E253FE4F2491AB
:1006500088579E4FFC0184918823D1F090E0880F49
:10066000991FFC01EC5AFE4FA591B491FC01E2598F
:10067000FE4FC591D49161110EC09FB7F8948C9133
:10068000E22FE0958E238C932881E223E8839FBF9D
:10069000DF91CF9108958FB7F894EC91E22BEC9312
:1006A0008FBFF6CF90917B00977F90937B0086530E
:1006B000806480937C0080917A00806480937A00CB
:1006C00080917A0086FDFCCF80917800909179002E
:1006D0000895089590E080E00895FC0101900020C5
:1006E000E9F73197AF01481B590BBC0184E693E051
:1006F0000C9461018F929F92AF92BF920F931F93C0
:10070000CF93DF93CDB7DEB7A1970FB6F894DEBFD6
:100710000FBECDBF19A2423008F44AE08E010F5D32
:100720001F4F842E912CB12CA12CA50194010E9465
:10073000720BE62FB901CA01EA30F4F4E05DD8018A
:10074000EE938D01232B242B252B79F790E080E06D
:10075000109719F0CD010E946D03A1960FB6F89481
:10076000DEBF0FBECDBFDF91CF911F910F91BF9024
:10077000AF909F908F900895E95CE1CF0C946D034A
:10078000CF93DF93EC0160E08E810E94950261E0DF
:100790008E810E94950260E08E810E9495028BE816
:1007A00091E00197F1F7DF91CF910895CF92DF9219
:1007B000EF92FF920F931F93CF93DF936C017C0115
:1007C00087E0E80EF11CD0E0C0E0062F10E0B80191
:1007D0000C2E02C0759567950A94E2F76170F701D7
:1007E00081917F010E9495022196C430D10579F74D
:1007F000C601DF91CF911F910F91FF90EF90DF9095
:10080000CF900C94C003CF92DF92EF92FF920F93A0
:100810001F93CF93DF93EC01F62E642F8C810E94FF
:1008200095028D818F3F19F060E00E9495020F2D97
:1008300010E08F8584FF25C06E0187E0C80ED11CB3
:10084000F12CE12CB8010E2C02C0759567950A9425
:10085000E2F76170F60181916F010E949502FFEF4E
:10086000EF1AFF0A88E0E816F10461F7CE01DF9184
:10087000CF911F910F91FF90EF90DF90CF900C944C
:10088000C003B80184E0759567958A95E1F7CE01BC
:100890000E94D6036F2DCE01DF91CF911F910F9152
:1008A000FF90EF90DF90CF900C94D60340E0682F3C
:1008B00084E693E00C940304CF93DF93813029F016
:1008C00090917303986090937303809377031092D1
:1008D000780380E48093790380E180937A0380E554
:1008E00080937B0361E0809168030E9421038091E3
:1008F00069038F3F19F061E00E94210361E080915C
:100900006A030E942103C4E6D3E09E0124563340CB
:100910008091730384FD0BC084E090E0219628173A
:10092000390744F461E08E810E942103EECF88E014
:1009300090E0F4CF8BE39DE00197F1F760E08091C8
:1009400068030E94950260E080916A030E9495020C
:10095000809169038F3F19F060E00E9495028091B9
:10096000730384FD39C063E084E693E00E94D603FC
:10097000CBE4D6E4CE010197F1F763E084E693E09F
:100980000E94D6032197F1F763E084E693E00E948A
:10099000D60383E592E00197F1F762E084E693E005
:1009A0000E94D6038091730380620E94560484E003
:1009B000809374038CE00E94560481E00E945604E8
:1009C0008BE39FE10197F1F782E08093750386E066
:1009D000DF91CF910C94560480620E9456048BE400
:1009E00096E40197F1F78091730380620E945604A8
:1009F00083E592E00197F1F78091730380620E9492
:100A00005604D0CF90917703891710F08FEF890F9C
:100A1000E82FF0E0EC59FC4F848980680C94560470
:100A200041E00E94030481E090E008954F925F92BC
:100A30006F927F928F929F92AF92BF92CF92DF92EE
:100A4000EF92FF920F931F93CF936B017C01742E53
:100A5000AC019B010E946D0B882399F08EE192E01E
:100A6000CF911F910F91FF90EF90DF90CF90BF90AB
:100A7000AF909F908F907F906F905F904F900C946D
:100A80006D0346015701E894B7F82FEF3FEF4FE7AA
:100A90005FE7C501B4010E946D0B81110DC02FEFFE
:100AA0003FEF4FE75FE7C501B4010E94A3091816A5
:100AB0001CF482E292E0D4CF2FEF3FEF4FE75FE4E8
:100AC000C701B6010E94FB0A18161CF486E292E0E8
:100AD000C7CF2FEF3FEF4FE75FECC701B6010E9492
:100AE000A30987FDF3CF20E030E0A901C701B601DB
:100AF0000E94A30910E000E087FF0CC041E06DE216
:100B000084E693E00E940304F7FAF094F7F8F09477
:100B100001E010E0C0E060E070E080E09FE37C1660
:100B200041F020E030E040E251E40E94A809CF5FAC
:100B3000F6CFA70196010E9437094B015C010E9484
:100B40001A0A2B013C014AE00E947A03080F191F80
:100B5000CC23C9F1C301B2010E94490A9B01AC0137
:100B6000C501B4010E9436094B015C0141E06EE20F
:100B700084E693E00E9403040F5F1F4FC15018F1F9
:100B800020E030E040E251E4C501B4010E94000BD6
:100B90002B013C010E941A0A4B01B12CA12C4AE006
:100BA000C501B4010E947A03080F191FC501B401E1
:100BB0000E94490A9B01AC01C301B2010E9436099F
:100BC0004B015C01DBCFC801CF911F910F91FF90CA
:100BD000EF90DF90CF90BF90AF909F908F907F90DD
:100BE0006F905F904F9008951F920F920FB60F92E3
:100BF00011240BB60F922F933F934F935F936F93F4
:100C00007F938F939F93AF93BF93EF93FF9387EC63
:100C100092E00E94D501FF91EF91BF91AF919F911A
:100C20008F917F916F915F914F913F912F910F9095
:100C30000BBE0F900FBE0F901F9018951F920F9232
:100C40000FB60F9211240BB60F922F938F939F9391
:100C5000EF93FF93E091D702F091D8028081E09169
:100C6000DD02F091DE0282FD1DC090818091E002E4
:100C70008F5F8F732091E102821741F0E091E002D3
:100C8000F0E0E953FD4F958F8093E002FF91EF91E3
:100C90009F918F912F910F900BBE0F900FBE0F90D1
:100CA0001F9018958081F2CF1F920F920FB60F926E
:100CB00011242F933F938F939F93AF93BF93809172
:100CC000AD029091AE02A091AF02B091B00230910E
:100CD000AC0223E0230F2D3758F50196A11DB11D5D
:100CE0002093AC028093AD029093AE02A093AF022A
:100CF000B093B0028091A8029091A902A091AA029B
:100D0000B091AB020196A11DB11D8093A8029093F2
:100D1000A902A093AA02B093AB02BF91AF919F9199
:100D20008F913F912F910F900FBE0F901F901895AC
:100D300026E8230F0296A11DB11DD2CFE7ECF2E009
:100D40001382128288EE93E0A0E0B0E08483958362
:100D5000A683B78384E092E09183808385EC90E062
:100D60009587848784EC90E09787868780EC90E075
:100D7000918B808B81EC90E0938B828B82EC90E066
:100D8000958B848B86EC90E0978B868B118E128EE0
:100D9000138E148EE4E6F3E01382128286E192E071
:100DA000918380838CE084838FEF85838BE08683BF
:100DB00085E0878384E0808783E0818782E0828783
:100DC0001386148615861686178681E00C945C04BB
:100DD000789484B5826084BD84B5816084BD85B516
:100DE000826085BD85B5816085BD80916E00816022
:100DF00080936E00109281008091810082608093C8
:100E000081008091810081608093810080918000C9
:100E10008160809380008091B10084608093B100F4
:100E20008091B00081608093B000809191008260D9
:100E300080939100809191008160809391008091D6
:100E400090008160809390008091A10082608093E7
:100E5000A1008091A10081608093A1008091A000F9
:100E600081608093A00080912101826080932101A4
:100E70008091210181608093210180912001816016
:100E80008093200180917A00846080937A00809121
:100E90007A00826080937A0080917A0081608093EA
:100EA0007A0080917A00806880937A001092C10065
:100EB00060E086E30E94210360E087E30E94210353
:100EC00060E088E30E94210360E089E30E9421033F
:100ED000E091D702F091D80282E08083E091D302C2
:100EE000F091D4021082E091D502F091D6028FECFD
:100EF00080831092DF02E091DB02F091DC0286E059
:100F00008083E091D902F091DA0280818061808350
:100F1000E091D902F091DA02808188608083E091CB
:100F2000D902F091DA02808180688083E091D90251
:100F3000F091DA0280818F7D808384E00E945C04DE
:100F400086E30E9452038C019093C6028093C502EF
:100F500087E30E945203EC019093C4028093C30282
:100F600088E30E9452037C019093C2028093C102E5
:100F700089E30E9452036C01B801110F880B990B91
:100F80000E944B0A20E030E040E85AE30E94000B48
:100F900020E030E44CE955E40E94000B20E030E40E
:100FA0004CE155E40E94360920E030E048EC52E480
:100FB0000E94A8096093BD027093BE028093BF0295
:100FC0009093C002BE01DD0F880B990B0E944B0A63
:100FD00020E030E040E85AE30E94000B20E030E4DB
:100FE0004CE955E40E94000B20E030E44CE155E46C
:100FF0000E94360920E030E048EC52E40E94A80943
:101000006093B9027093BA028093BB029093BC02C2
:10101000B701FF0C880B990B0E944B0A20E030E0CF
:1010200040E85AE30E94000B20E030E44CE955E42C
:101030000E94000B20E030E44CE155E40E943609A8
:1010400020E030E048EC52E40E94A8096093B50229
:101050007093B6028093B7029093B802B601DD0C8C
:10106000880B990B0E944B0A20E030E040E85AE3DD
:101070000E94000B20E030E44CE955E40E94000B94
:1010800020E030E44CE155E40E94360920E030E0F5
:1010900048EC52E40E94A8096093B1027093B20236
:1010A0008093B3029093B40280E00E9402058AE22A
:1010B00092E00E94BE036091BD027091BE028091D9
:1010C000BF029091C00241E00E9416058DE292E0BD
:1010D0000E94BE03C090B502D090B602E090B70265
:1010E000F090B80220E030E0A901C701B6010E94EB
:1010F000FB0A181624F0F7FAF094F7F8F09441E0A0
:10110000C701B6010E94160580E392E00E94BE036B
:101110006091B1027091B2028091B3029091B402D9
:1011200041E00E94160520E030E0A9016091B5027F
:101130007091B6028091B7029091B8020E94A30903
:1011400087FF0BC081E00E94020583E392E00E94CA
:10115000BE0361E087E00E94950220E030E0A90133
:101160006091B5027091B6028091B7029091B80279
:101170000E94FB0A18165CF481E00E94020583E4D9
:1011800092E00E94BE0360E087E00E94950220E0AA
:1011900030E0A9016091B5027091B6028091B7026A
:1011A0009091B8020E94A30981110BC081E00E94B6
:1011B000020583E592E00E94BE0360E087E00E94A2
:1011C000950220E030E0A9016091B9027091BA0265
:1011D0008091BB029091BC020E94FB0A18163CF45D
:1011E00082E00E94020583E692E00E94BE0320E0B6
:1011F00030E0A9016091B9027091BA028091BB02FE
:101200009091BC020E94A30987FF07C082E00E9460
:10121000020584E792E00E94BE0320E030E0A901CD
:101220006091B9027091BA028091BB029091BC02A8
:101230000E94A309811107C082E00E94020585E88F
:1012400092E00E94BE0383E00E94020586E992E0DC
:101250000E94BE0380917403982F9460909374034E
:101260008C600E9456040E9464026ACE5058BB27CC
:10127000AA270E944E090C94C10A0E94B30A38F0B2
:101280000E94BA0A20F039F49F3F19F426F40C9416
:10129000B00A0EF4E095E7FB0C94AA0AE92F0E942D
:1012A000D20A58F3BA17620773078407950720F02C
:1012B00079F4A6F50C94F40A0EF4E0950B2EBA2FEF
:1012C000A02D0B01B90190010C01CA01A00111244C
:1012D000FF27591B99F0593F50F4503E68F11A16F8
:1012E000F040A22F232F342F4427585FF3CF469589
:1012F00037952795A795F0405395C9F77EF41F16AB
:10130000BA0B620B730B840BBAF09150A1F0FF0F74
:10131000BB1F661F771F881FC2F70EC0BA0F621F60
:10132000731F841F48F4879577956795B795F79550
:101330009E3F08F0B0CF9395880F08F09927EE0FE5
:101340009795879508950E94860A08F481E008958C
:101350000E94BC090C94C10A0E94BA0A58F00E946B
:10136000B30A40F029F45F3F29F00C94AA0A511106
:101370000C94F50A0C94B00A0E94D20A68F39923DF
:10138000B1F3552391F3951B550BBB27AA27621781
:101390007307840738F09F5F5F4F220F331F441F8E
:1013A000AA1FA9F335D00E2E3AF0E0E832D09150C2
:1013B0005040E695001CCAF72BD0FE2F29D0660FAF
:1013C000771F881FBB1F261737074807AB07B0E8F2
:1013D00009F0BB0B802DBF01FF2793585F4F3AF0F8
:1013E0009E3F510578F00C94AA0A0C94F50A5F3FD1
:1013F000E4F3983ED4F3869577956795B795F7957E
:101400009F5FC9F7880F911D9695879597F9089565
:10141000E1E0660F771F881FBB1F62177307840701
:10142000BA0720F0621B730B840BBA0BEE1F88F710
:10143000E09508950E94DA0A88F09F5798F0B92F36
:101440009927B751B0F0E1F0660F771F881F991FF9
:101450001AF0BA95C9F714C0B13091F00E94F40A9D
:10146000B1E008950C94F40A672F782F8827B85FAD
:1014700039F0B93FCCF3869577956795B395D9F751
:101480003EF490958095709561957F4F8F4F9F4F5B
:101490000895E89409C097FB3EF490958095709567
:1014A00061957F4F8F4F9F4F9923A9F0F92F96E9B0
:1014B000BB279395F695879577956795B795F11125
:1014C000F8CFFAF4BB0F11F460FF1BC06F5F7F4FC2
:1014D0008F4F9F4F16C0882311F096E911C07723D4
:1014E00021F09EE8872F762F05C0662371F096E8DD
:1014F000862F70E060E02AF09A95660F771F881FAC
:10150000DAF7880F9695879597F90895990F00084F
:10151000550FAA0BE0E8FEEF16161706E807F907C5
:10152000C0F012161306E407F50798F0621B730B60
:10153000840B950B39F40A2661F0232B242B252BE1
:1015400021F408950A2609F4A140A6958FEF811D84
:10155000811D089597F99F6780E870E060E0089525
:101560009FEF80EC089500240A94161617061806BB
:101570000906089500240A94121613061406050697
:101580000895092E0394000C11F4882352F0BB0F28
:1015900040F4BF2B11F460FF04C06F5F7F4F8F4F8B
:1015A0009F4F089557FD9058440F551F59F05F3FC6
:1015B00071F04795880F97FB991F61F09F3F79F075
:1015C00087950895121613061406551FF2CF4695F7
:1015D000F1DF08C0161617061806991FF1CF869579
:1015E0007105610508940895E894BB27662777275D
:1015F000CB0197F908950E94860A08F48FEF0895A9
:101600000E94130B0C94C10A0E94B30A38F00E9486
:10161000BA0A20F0952311F00C94AA0A0C94B00A8F
:1016200011240C94F50A0E94D20A70F3959FC1F31D
:10163000950F50E0551F629FF001729FBB27F00D80
:10164000B11D639FAA27F00DB11DAA1F649F6627D5
:10165000B00DA11D661F829F2227B00DA11D621F24
:10166000739FB00DA11D621F839FA00D611D221FDE
:10167000749F3327A00D611D231F849F600D211DC2
:10168000822F762F6A2F11249F5750409AF0F1F045
:1016900088234AF0EE0FFF1FBB1F661F771F881FAE
:1016A00091505040A9F79E3F510580F00C94AA0A32
:1016B0000C94F50A5F3FE4F3983ED4F38695779552
:1016C0006795B795F795E7959F5FC1F7FE2B880F54
:1016D000911D9695879597F908950E94860A880B23
:1016E000990B0895A1E21A2EAA1BBB1BFD010DC088
:1016F000AA1FBB1FEE1FFF1FA217B307E407F507C2
:1017000020F0A21BB30BE40BF50B661F771F881F9D
:10171000991F1A9469F760957095809590959B0133
:10172000AC01BD01CF010895EE0FFF1F881F8BBFD5
:0C1730000790F691E02D1994F894FFCF7B
:10173C0000000000F70161018E014402BF019D0110
:10174C00B10100000000100561016A0369036E61BC
:10175C006E00696E66006F766600533A00573A0069
:10176C004C3A00506F776572204578706F727469CF
:10177C006E6700506F77657220496D706F72746977
:10178C006E67004772696420446973636F6E6E659F
:10179C006374004261747465727920446973636880
:1017AC002E2E2E004261747465727920436861722A
:1017BC0067696E6700202020202020202020202018
:1017CC002020202020002042692D4469726563741A
:0817DC00696F6E616C200000D2
:00000001FF
