:100000000C945D000C9485000C9485000C94850084
:100010000C9485000C9485000C9485000C9485004C
:100020000C9485000C9485000C9485000C9485003C
:100030000C9485000C9485000C9485000C9485002C
:100040000C9418040C9485000C94E6030C94C003E3
:100050000C9485000C9485000C9485000C9485000C
:100060000C9485000C9485000000000024002700FB
:100070002A0000000000250028002B0004040404CE
:100080000404040402020202020203030303030342
:10009000010204081020408001020408102001021F
:1000A00004081020000000080002010000030407FB
:1000B0000000000000000000620411241FBECFEF0A
:1000C000D8E0DEBFCDBF11E0A0E0B1E0E2E7F1E1B2
:1000D00002C005900D92A233B107D9F721E0A2E347
:1000E000B1E001C01D92AA3FB207E1F710E0CDE5F3
:1000F000D0E004C02197FE010E94B108CC35D107A1
:10010000C9F70E94AC040C94B7080C940000AF929D
:10011000BF92CF92DF92EF92FF920F931F93CF93F4
:10012000DF936C017B018B01040F151FEB015E0156
:10013000AE18BF08C017D10759F06991D601ED91EB
:10014000FC910190F081E02DC6010995892B79F78A
:10015000C501DF91CF911F910F91FF90EF90DF903C
:10016000CF90BF90AF900895FC01538D448D252F03
:1001700030E0842F90E0821B930B541710F0CF9641
:10018000089501970895FC01918D828D981761F073
:10019000A28DAE0FBF2FB11D5D968C91928D9F5F8A
:1001A0009F73928F90E008958FEF9FEF0895FC0169
:1001B000918D828D981731F0828DE80FF11D858D1C
:1001C00090E008958FEF9FEF0895FC01918D228DAF
:1001D000892F90E0805C9F4F821B91098F73992734
:1001E000089585E491E00E94E50021E0892B09F45F
:1001F00020E0822F089580E090E0892B29F00E9472
:10020000F10081110C9400000895FC01A48DA80F49
:10021000B92FB11DA35ABF4F2C91848D90E0019648
:100220008F739927848FA689B7892C93A089B18968
:100230008C91837080648C93938D848D981306C009
:100240000288F389E02D80818F7D80830895EF926D
:10025000FF920F931F93CF93DF93EC0181E0888F80
:100260009B8D8C8D98131AC0E889F989808185FF50
:1002700015C09FB7F894EE89FF896083E889F989F2
:1002800080818370806480839FBF81E090E0DF91F4
:10029000CF911F910F91FF90EF900895F62E0B8D47
:1002A00010E00F5F1F4F0F731127E02E8C8D8E1102
:1002B0000CC00FB607FCFACFE889F989808185FF69
:1002C000F5CFCE010E940501F1CFEB8DEC0FFD2F94
:1002D000F11DE35AFF4FF0829FB7F8940B8FEA8924
:1002E000FB8980818062CFCFCF93DF93EC01888D33
:1002F0008823B9F0AA89BB89E889F9898C9185FDA1
:1003000003C0808186FD0DC00FB607FCF7CF8C912E
:1003100085FFF2CF808185FFEDCFCE010E940501E0
:10032000E9CFDF91CF91089590E0FC01EC55FF4FAC
:100330002491FC01E057FF4F3491FC01E458FF4F3A
:10034000E491EE23C9F0222339F0233001F1A8F41F
:10035000213019F1223029F1F0E0EE0FFF1FEE58A5
:10036000FF4FA591B4918FB7F894EC91611126C01D
:1003700030953E233C938FBF08952730A9F0283055
:10038000C9F0243049F7809180008F7D03C08091AF
:1003900080008F7780938000DFCF84B58F7784BD16
:1003A000DBCF84B58F7DFBCF8091B0008F778093BA
:1003B000B000D2CF8091B0008F7DF9CF3E2BDACF45
:1003C000CF93DF9390E0FC01E057FF4F24918458D6
:1003D0009F4FFC0184918823D1F090E0880F991FF2
:1003E000FC01E859FF4FA591B491FC01EE58FF4F75
:1003F000C591D49161110EC09FB7F8948C91E22FF2
:10040000E0958E238C932881E223E8839FBFDF91C0
:10041000CF9108958FB7F894EC91E22BEC938FBFB6
:10042000F6CF8E50806480937C0080917A00806447
:1004300080937A0080917A0086FDFCCF80917800CD
:10044000909179000895089590E080E00895FC016E
:1004500001900020E9F73197AF01481B590BBC010F
:1004600082EE91E00C9487008F929F92AF92BF92A0
:100470000F931F93CF93DF93CDB7DEB7A1970FB63E
:10048000F894DEBF0FBECDBF19A2423008F44AE097
:100490008E010F5D1F4F842E912CB12CA12CA50134
:1004A00094010E948F08E62FB901CA01EA30F4F4E2
:1004B000E05DD801EE938D01232B242B252B79F7BA
:1004C00090E080E0109719F0CD010E942702A196DC
:1004D0000FB6F894DEBF0FBECDBFDF91CF911F9155
:1004E0000F91BF90AF909F908F900895E95CE1CFFE
:1004F000CF93DF93EC0160E08E810E94940161E074
:100500008E810E94940160E08E810E9494018BE8AC
:1005100091E00197F1F7DF91CF910895CF92DF92AB
:10052000EF92FF920F931F93CF93DF936C017C01A7
:1005300087E0E80EF11CD0E0C0E0062F10E0B80123
:100540000C2E02C0759567950A94E2F76170F70169
:1005500081917F010E9494012196C430D10579F7E1
:10056000C601DF91CF911F910F91FF90EF90DF9027
:10057000CF900C947802CF92DF92EF92FF920F937C
:100580001F93CF93DF93EC01F62E642F8C810E9492
:1005900094018D818F3F19F060E00E9494010F2D2E
:1005A00010E08F8584FF25C06E0187E0C80ED11C46
:1005B000F12CE12CB8010E2C02C0759567950A94B8
:1005C000E2F76170F60181916F010E949401FFEFE3
:1005D000EF1AFF0A88E0E816F10461F7CE01DF9117
:1005E000CF911F910F91FF90EF90DF90CF900C94DF
:1005F0007802B80184E0759567958A95E1F7CE0198
:100600000E948E026F2DCE01DF91CF911F910F912D
:10061000FF90EF90DF90CF900C948E0240E0682F17
:1006200082EE91E00C94BB02CF93DF93813029F0EE
:100630009091F10198609093F1018093F5011092EF
:10064000F60180E48093F70180E18093F80180E572
:100650008093F90161E08091E6010E94E0018091C0
:10066000E7018F3F19F061E00E94E00161E08091B5
:10067000E8010E94E001C2EED1E09E01225E31401D
:100680008091F10184FD0BC084E090E02196281751
:10069000390744F461E08E810E94E001EECF88E0EA
:1006A00090E0F4CF8BE39DE00197F1F760E080915B
:1006B000E6010E94940160E08091E8010E949401AB
:1006C0008091E7018F3F19F060E00E9494018091D2
:1006D000F10184FD39C063E082EE91E00E948E0258
:1006E000CBE4D6E4CE010197F1F763E082EE91E02E
:1006F0000E948E022197F1F763E082EE91E00E9462
:100700008E0283E592E00197F1F762E082EE91E0DC
:100710000E948E028091F10180620E940E0384E0AB
:100720008093F2018CE00E940E0381E00E940E0390
:100730008BE39FE10197F1F782E08093F30186E07C
:10074000DF91CF910C940E0380620E940E038BE424
:1007500096E40197F1F78091F10180620E940E0307
:1007600083E592E00197F1F78091F10180620E94A8
:100770000E03D0CF41E00E94BB0281E090E00895DB
:100780001F920F920FB60F9211242F933F934F9306
:100790005F936F937F938F939F93AF93BF93EF93E9
:1007A000FF9385E491E00E940501FF91EF91BF91D5
:1007B000AF919F918F917F916F915F914F913F91F9
:1007C0002F910F900FBE0F901F9018951F920F92B0
:1007D0000FB60F9211242F938F939F93EF93FF9354
:1007E000E0915501F09156018081E0915B01F0911B
:1007F0005C0182FD1BC0908180915E018F5F8F73D1
:1008000020915F01821741F0E0915E01F0E0EB5B27
:10081000FE4F958F80935E01FF91EF919F918F9195
:100820002F910F900FBE0F901F9018958081F4CFDD
:100830001F920F920FB60F9211242F933F938F9315
:100840009F93AF93BF938091370190913801A0910E
:100850003901B0913A013091360123E0230F2D3751
:1008600058F50196A11DB11D2093360180933701E3
:1008700090933801A0933901B0933A0180913201ED
:1008800090913301A0913401B09135010196A11DE1
:10089000B11D8093320190933301A0933401B09342
:1008A0003501BF91AF919F918F913F912F910F9003
:1008B0000FBE0F901F90189526E8230F0296A11DDA
:1008C000B11DD2CFE5E4F1E01382128288EE93E00D
:1008D000A0E0B0E084839583A683B78384E091E0B1
:1008E0009183808385EC90E09587848784EC90E009
:1008F0009787868780EC90E0918B808B81EC90E0ED
:10090000938B828B82EC90E0958B848B86EC90E0CD
:10091000978B868B118E128E138E148EE2EEF1E081
:100920001382128286E191E0918380838CE084833C
:100930008FEF85838BE0868385E0878384E08087E3
:1009400083E0818782E08287138614861586168667
:10095000178681E00C941403789484B5826084BD7A
:1009600084B5816084BD85B5826085BD85B58160B3
:1009700085BD80916E00816080936E001092810031
:1009800080918100826080938100809181008160EC
:1009900080938100809180008160809380008091AD
:1009A000B10084608093B1008091B0008160809339
:1009B000B00080917A00846080937A0080917A0000
:1009C000826080937A0080917A00816080937A00BF
:1009D00080917A00806880937A001092C10060E074
:1009E0008EE00E94E00160E08FE00E94E00160E0A4
:1009F00080E10E94E00160E081E10E94E001E0917D
:100A00005501F091560182E08083E0915101F0910F
:100A100052011082E0915301F09154018FEC8083D8
:100A200010925D01E0915901F0915A0186E08083B6
:100A3000E0915701F0915801808180618083E091BD
:100A40005701F0915801808188608083E0915701BF
:100A5000F0915801808180688083E0915701F09186
:100A6000580180818F7D808384E00E941403C0E060
:100A7000D0E08EE00E9411027C01909344018093AB
:100A800043018FE00E941102909342018093410143
:100A900080E10E9411029093400180933F0181E127
:100AA0000E941102B701FF0C880B990B0E94680786
:100AB00020E030E040E85AE30E941D0820E030E4E6
:100AC0004CE955E40E941D0820E030E44CE155E477
:100AD0000E94530620E030E048EC52E40E94C50634
:100AE00060933B0170933C0180933D0190933E01E4
:100AF000E1E08091F5018111E0E0E195F0E0EE5157
:100B0000FE4F848980680E940E038EE191E00E946E
:100B10002702E091F501E43080F5E150F0E0EE517C
:100B2000FE4F848980680E940E03C0903B01D090E4
:100B30003C01E0903D01F0903E01A7019601C70104
:100B4000B6010E948A088823D1F086E291E00E94D3
:100B500027028091F201982F94609093F2018C60AB
:100B60000E940E03209709F484CF0E94F10088238D
:100B700009F47FCF0E9400007CCFE3E0CFCF460195
:100B80005701E894B7F82FEF3FEF4FE75FE7C50154
:100B9000B4010E948A0881110DC02FEF3FEF4FE78B
:100BA0005FE7C501B4010E94C00618161CF48AE272
:100BB00091E0CDCF2FEF3FEF4FE75FE4C701B601E4
:100BC0000E94180818161CF48EE291E0C0CF2FEF97
:100BD0003FEF4FE75FECC701B6010E94C00687FDFB
:100BE000F3CF20E030E0A901C701B6010E94C006A2
:100BF00087FF0AC041E06DE282EE91E00E94BB02F5
:100C0000F7FAF094F7F8F0942AE037ED43EA5BE363
:100C1000C701B6010E9454064B015C010E943707D0
:100C20006B017C010E9466079B01AC01C501B40108
:100C30000E9453064B015C014AE0C701B6010E94C5
:100C4000340241E06EE282EE91E00E94BB0220E0BD
:100C500030E040E251E4C501B4010E941D084B019F
:100C60005C010E9437076B01F12CE12C4AE0C701BF
:100C7000B6010E943402C701B6010E9466079B01BB
:100C8000AC01C501B4010E94530620E030E040E20F
:100C900051E40E941D080E94370790E080E04AE07E
:100CA0000E94340256CF5058BB27AA270E946B06D9
:100CB0000C94DE070E94D00738F00E94D70720F07E
:100CC00039F49F3F19F426F40C94CD070EF4E09507
:100CD000E7FB0C94C707E92F0E94EF0758F3BA17F8
:100CE000620773078407950720F079F4A6F50C9442
:100CF00011080EF4E0950B2EBA2FA02D0B01B901AF
:100D000090010C01CA01A0011124FF27591B99F081
:100D1000593F50F4503E68F11A16F040A22F232F8D
:100D2000342F4427585FF3CF469537952795A795DD
:100D3000F0405395C9F77EF41F16BA0B620B730B84
:100D4000840BBAF09150A1F0FF0FBB1F661F771FF5
:100D5000881FC2F70EC0BA0F621F731F841F48F4AA
:100D6000879577956795B795F7959E3F08F0B0CF33
:100D70009395880F08F09927EE0F9795879508951A
:100D80000E94A30708F481E008950E94D9060C94FC
:100D9000DE070E94D70758F00E94D00740F029F4E0
:100DA0005F3F29F00C94C70751110C9412080C9462
:100DB000CD070E94EF0768F39923B1F3552391F310
:100DC000951B550BBB27AA2762177307840738F0BA
:100DD0009F5F5F4F220F331F441FAA1FA9F335D017
:100DE0000E2E3AF0E0E832D091505040E695001CCB
:100DF000CAF72BD0FE2F29D0660F771F881FBB1F85
:100E0000261737074807AB07B0E809F0BB0B802D62
:100E1000BF01FF2793585F4F3AF09E3F510578F08E
:100E20000C94C7070C9412085F3FE4F3983ED4F388
:100E3000869577956795B795F7959F5FC9F7880F62
:100E4000911D9695879597F90895E1E0660F771FB4
:100E5000881FBB1F621773078407BA0720F0621B45
:100E6000730B840BBA0BEE1F88F7E09508950E9470
:100E7000F70788F09F5798F0B92F9927B751B0F02E
:100E8000E1F0660F771F881F991F1AF0BA95C9F70E
:100E900014C0B13091F00E941108B1E008950C9493
:100EA0001108672F782F8827B85F39F0B93FCCF346
:100EB000869577956795B395D9F73EF4909580958B
:100EC000709561957F4F8F4F9F4F0895E89409C0AB
:100ED00097FB3EF490958095709561957F4F8F4F6D
:100EE0009F4F9923A9F0F92F96E9BB279395F69583
:100EF000879577956795B795F111F8CFFAF4BB0F01
:100F000011F460FF1BC06F5F7F4F8F4F9F4F16C064
:100F1000882311F096E911C0772321F09EE8872FEE
:100F2000762F05C0662371F096E8862F70E060E0AA
:100F30002AF09A95660F771F881FDAF7880F969523
:100F4000879597F90895990F0008550FAA0BE0E8C7
:100F5000FEEF16161706E807F907C0F0121613067B
:100F6000E407F50798F0621B730B840B950B39F4BB
:100F70000A2661F0232B242B252B21F408950A2621
:100F800009F4A140A6958FEF811D811D089597F961
:100F90009F6780E870E060E008959FEF80EC08951F
:100FA00000240A9416161706180609060895002448
:100FB0000A9412161306140605060895092E0394C2
:100FC000000C11F4882352F0BB0F40F4BF2B11F436
:100FD00060FF04C06F5F7F4F8F4F9F4F089557FD95
:100FE0009058440F551F59F05F3F71F04795880F97
:100FF00097FB991F61F09F3F79F08795089512162E
:1010000013061406551FF2CF4695F1DF08C01616D9
:1010100017061806991FF1CF86957105610508948A
:101020000895E894BB2766277727CB0197F90895A1
:101030000E94A30708F48FEF08950E9430080C94D3
:10104000DE070E94D00738F00E94D70720F09523D2
:1010500011F00C94C7070C94CD0711240C941208BE
:101060000E94EF0770F3959FC1F3950F50E0551F55
:10107000629FF001729FBB27F00DB11D639FAA27ED
:10108000F00DB11DAA1F649F6627B00DA11D661F3C
:10109000829F2227B00DA11D621F739FB00DA11D5D
:1010A000621F839FA00D611D221F749F3327A00D17
:1010B000611D231F849F600D211D822F762F6A2FB3
:1010C00011249F5750409AF0F1F088234AF0EE0F18
:1010D000FF1FBB1F661F771F881F91505040A9F745
:1010E0009E3F510580F00C94C7070C9412085F3F97
:1010F000E4F3983ED4F3869577956795B795F79581
:10110000E7959F5FC1F7FE2B880F911D96958795F8
:1011100097F908950E94A307880B990B0895A1E2FF
:101120001A2EAA1BBB1BFD010DC0AA1FBB1FEE1F61
:10113000FF1FA217B307E407F50720F0A21BB30BAC
:10114000E40BF50B661F771F881F991F1A9469F728
:1011500060957095809590959B01AC01BD01CF0184
:101160000895EE0FFF1F0590F491E02D0994F89477
:02117000FFCFAF
:101172000000000027018700B4007401E500C300ED
:10118200D70000000000BA03870024022302736F15
:101192006C61723A20006E616E00696E66006F7655
:0211A2006600E5
:00000001FF
